{
  "abi": [
    {
      "type": "function",
      "name": "postBlob",
      "inputs": [
        {
          "name": "segments",
          "type": "tuple[]",
          "internalType": "struct IBlobReceiver.BlobSegment[]",
          "components": [
            {
              "name": "receiverAddress",
              "type": "address",
              "internalType": "address"
            },
            {
              "name": "firstBlobIndex",
              "type": "uint64",
              "internalType": "uint64"
            },
            {
              "name": "numBlobs",
              "type": "uint8",
              "internalType": "uint8"
            },
            {
              "name": "offset",
              "type": "uint64",
              "internalType": "uint64"
            },
            {
              "name": "length",
              "type": "uint64",
              "internalType": "uint64"
            },
            {
              "name": "payload",
              "type": "bytes",
              "internalType": "bytes"
            },
            {
              "name": "blobHash",
              "type": "bytes32",
              "internalType": "bytes32"
            }
          ]
        }
      ],
      "outputs": [],
      "stateMutability": "nonpayable"
    },
    {
      "type": "event",
      "name": "BlobSegmentPosted",
      "inputs": [
        {
          "name": "receiverAddress",
          "type": "address",
          "indexed": true,
          "internalType": "address"
        },
        {
          "name": "firstBlobIndex",
          "type": "uint64",
          "indexed": false,
          "internalType": "uint64"
        },
        {
          "name": "numBlobs",
          "type": "uint8",
          "indexed": false,
          "internalType": "uint8"
        },
        {
          "name": "offset",
          "type": "uint64",
          "indexed": false,
          "internalType": "uint64"
        },
        {
          "name": "length",
          "type": "uint64",
          "indexed": false,
          "internalType": "uint64"
        },
        {
          "name": "payload",
          "type": "bytes",
          "indexed": false,
          "internalType": "bytes"
        },
        {
          "name": "blobHash",
          "type": "bytes32",
          "indexed": false,
          "internalType": "bytes32"
        },
        {
          "name": "success",
          "type": "bool",
          "indexed": false,
          "internalType": "bool"
        }
      ],
      "anonymous": false
    }
  ],
  "bytecode": {
    "object": "0x6080604052348015600e575f80fd5b5061067c8061001c5f395ff3fe608060405234801561000f575f80fd5b5060043610610029575f3560e01c8063ff223fd11461002d575b5f80fd5b61004061003b366004610270565b610042565b005b5f5b8181101561026b573683838381811061005f5761005f6102e1565b9050602002810190610071919061030e565b90505f6100816020830183610372565b90505f806100926020850185610372565b73ffffffffffffffffffffffffffffffffffffffff16146101aa578173ffffffffffffffffffffffffffffffffffffffff1663af43dc0260e01b846040516024016100dd9190610467565b604080517fffffffffffffffffffffffffffffffffffffffffffffffffffffffffffffffe08184030181529181526020820180517bffffffffffffffffffffffffffffffffffffffffffffffffffffffff167fffffffff000000000000000000000000000000000000000000000000000000009094169390931790925290516101669190610535565b5f604051808303815f865af19150503d805f811461019f576040519150601f19603f3d011682016040523d82523d5f602084013e6101a4565b606091505b50909150505b6101b76020840184610372565b73ffffffffffffffffffffffffffffffffffffffff167f35fc11fa261b39c3584e63aa5fd43e446d0d9afad4fd933a07deb6c8907168136101fe604086016020870161054b565b61020e6060870160408801610564565b61021e608088016060890161054b565b61022e60a0890160808a0161054b565b61023b60a08a018a61057d565b8a60c00135896040516102559897969594939291906105de565b60405180910390a2505050806001019050610044565b505050565b5f8060208385031215610281575f80fd5b823567ffffffffffffffff811115610297575f80fd5b8301601f810185136102a7575f80fd5b803567ffffffffffffffff8111156102bd575f80fd5b8560208260051b84010111156102d1575f80fd5b6020919091019590945092505050565b7f4e487b71000000000000000000000000000000000000000000000000000000005f52603260045260245ffd5b5f82357fffffffffffffffffffffffffffffffffffffffffffffffffffffffffffffff21833603018112610340575f80fd5b9190910192915050565b803573ffffffffffffffffffffffffffffffffffffffff8116811461036d575f80fd5b919050565b5f60208284031215610382575f80fd5b61038b8261034a565b9392505050565b803567ffffffffffffffff8116811461036d575f80fd5b803560ff8116811461036d575f80fd5b5f8083357fffffffffffffffffffffffffffffffffffffffffffffffffffffffffffffffe18436030181126103ec575f80fd5b830160208101925035905067ffffffffffffffff81111561040b575f80fd5b803603821315610419575f80fd5b9250929050565b81835281816020850137505f602082840101525f60207fffffffffffffffffffffffffffffffffffffffffffffffffffffffffffffffe0601f840116840101905092915050565b6020815273ffffffffffffffffffffffffffffffffffffffff6104898361034a565b16602082015267ffffffffffffffff6104a460208401610392565b16604082015260ff6104b8604084016103a9565b1660608201525f6104cb60608401610392565b67ffffffffffffffff81166080840152506104e860808401610392565b67ffffffffffffffff811660a08401525061050660a08401846103b9565b60e060c085015261051c61010085018284610420565b60c0959095013560e09490940193909352509192915050565b5f82518060208501845e5f920191825250919050565b5f6020828403121561055b575f80fd5b61038b82610392565b5f60208284031215610574575f80fd5b61038b826103a9565b5f8083357fffffffffffffffffffffffffffffffffffffffffffffffffffffffffffffffe18436030181126105b0575f80fd5b83018035915067ffffffffffffffff8211156105ca575f80fd5b602001915036819003821315610419575f80fd5b67ffffffffffffffff8916815260ff8816602082015267ffffffffffffffff8716604082015267ffffffffffffffff8616606082015260e060808201525f61062a60e083018688610420565b60a08301949094525090151560c090910152969550505050505056fea2646970667358221220dc8bc9aaaa559a485356052ac37b2553a3d2b97393823c55c0b4b780fffdeacb64736f6c634300081a0033",
    "linkReferences": {}
  },
  "methodIdentifiers": {
    "postBlob((address,uint64,uint8,uint64,uint64,bytes,bytes32)[])": "ff223fd1"
  },
  "id": 0
}